{
  "contractName": "Purchase",
  "abi": [
    {
      "constant": true,
      "inputs": [
        {
          "name": "",
          "type": "address"
        },
        {
          "name": "",
          "type": "uint256"
        }
      ],
      "name": "txToSeller",
      "outputs": [
        {
          "name": "buyerAddress",
          "type": "address"
        },
        {
          "name": "uniqueId",
          "type": "string"
        },
        {
          "name": "amount",
          "type": "uint256"
        }
      ],
      "payable": false,
      "stateMutability": "view",
      "type": "function"
    },
    {
      "constant": true,
      "inputs": [
        {
          "name": "",
          "type": "uint256"
        }
      ],
      "name": "transactions",
      "outputs": [
        {
          "name": "buyerAddress",
          "type": "address"
        },
        {
          "name": "uniqueId",
          "type": "string"
        },
        {
          "name": "amount",
          "type": "uint256"
        }
      ],
      "payable": false,
      "stateMutability": "view",
      "type": "function"
    },
    {
      "constant": true,
      "inputs": [],
      "name": "totalBalance",
      "outputs": [
        {
          "name": "",
          "type": "uint256"
        }
      ],
      "payable": false,
      "stateMutability": "view",
      "type": "function"
    },
    {
      "constant": true,
      "inputs": [
        {
          "name": "",
          "type": "address"
        }
      ],
      "name": "buyer",
      "outputs": [
        {
          "name": "",
          "type": "uint256"
        }
      ],
      "payable": false,
      "stateMutability": "view",
      "type": "function"
    },
    {
      "constant": true,
      "inputs": [],
      "name": "totalBuyer",
      "outputs": [
        {
          "name": "",
          "type": "uint256"
        }
      ],
      "payable": false,
      "stateMutability": "view",
      "type": "function"
    },
    {
      "inputs": [],
      "payable": false,
      "stateMutability": "nonpayable",
      "type": "constructor"
    },
    {
      "constant": true,
      "inputs": [],
      "name": "getTotalBuyer",
      "outputs": [
        {
          "name": "",
          "type": "uint256"
        }
      ],
      "payable": false,
      "stateMutability": "view",
      "type": "function"
    },
    {
      "constant": false,
      "inputs": [],
      "name": "buyerDepositToContract",
      "outputs": [],
      "payable": true,
      "stateMutability": "payable",
      "type": "function"
    },
    {
      "constant": false,
      "inputs": [
        {
          "name": "_addressSeller",
          "type": "address"
        },
        {
          "name": "_uniqueId",
          "type": "string"
        },
        {
          "name": "_amount",
          "type": "uint256"
        }
      ],
      "name": "sendMoney",
      "outputs": [],
      "payable": true,
      "stateMutability": "payable",
      "type": "function"
    }
  ],
  "bytecode": "0x6060604052341561000f57600080fd5b610a2d8061001e6000396000f30060606040526004361061008e576000357c0100000000000000000000000000000000000000000000000000000000900463ffffffff16806313b53c571461009357806324d7cd02146100bc5780632e7b077d146101b15780639ace38c2146101bb578063ad7a672f14610291578063b7748208146102ba578063db9d084c14610307578063f3d9301514610381575b600080fd5b341561009e57600080fd5b6100a66103aa565b6040518082815260200191505060405180910390f35b34156100c757600080fd5b6100fc600480803573ffffffffffffffffffffffffffffffffffffffff169060200190919080359060200190919050506103b4565b604051808473ffffffffffffffffffffffffffffffffffffffff1673ffffffffffffffffffffffffffffffffffffffff16815260200180602001838152602001828103825284818151815260200191508051906020019080838360005b83811015610174578082015181840152602081019050610159565b50505050905090810190601f1680156101a15780820380516001836020036101000a031916815260200191505b5094505050505060405180910390f35b6101b96104b2565b005b34156101c657600080fd5b6101dc6004808035906020019091905050610508565b604051808473ffffffffffffffffffffffffffffffffffffffff1673ffffffffffffffffffffffffffffffffffffffff16815260200180602001838152602001828103825284818151815260200191508051906020019080838360005b83811015610254578082015181840152602081019050610239565b50505050905090810190601f1680156102815780820380516001836020036101000a031916815260200191505b5094505050505060405180910390f35b341561029c57600080fd5b6102a46105f9565b6040518082815260200191505060405180910390f35b34156102c557600080fd5b6102f1600480803573ffffffffffffffffffffffffffffffffffffffff169060200190919050506105ff565b6040518082815260200191505060405180910390f35b61037f600480803573ffffffffffffffffffffffffffffffffffffffff1690602001909190803590602001908201803590602001908080601f01602080910402602001604051908101604052809392919081815260200183838082843782019150505050505091908035906020019091905050610617565b005b341561038c57600080fd5b61039461087e565b6040518082815260200191505060405180910390f35b6000600454905090565b6001602052816000526040600020818154811015156103cf57fe5b9060005260206000209060030201600091509150508060000160009054906101000a900473ffffffffffffffffffffffffffffffffffffffff1690806001018054600181600116156101000203166002900480601f0160208091040260200160405190810160405280929190818152602001828054600181600116156101000203166002900480156104a25780601f10610477576101008083540402835291602001916104a2565b820191906000526020600020905b81548152906001019060200180831161048557829003601f168201915b5050505050908060020154905083565b346000803373ffffffffffffffffffffffffffffffffffffffff1673ffffffffffffffffffffffffffffffffffffffff168152602001908152602001600020819055506001600460008282540192505081905550565b60028181548110151561051757fe5b90600052602060002090600302016000915090508060000160009054906101000a900473ffffffffffffffffffffffffffffffffffffffff1690806001018054600181600116156101000203166002900480601f0160208091040260200160405190810160405280929190818152602001828054600181600116156101000203166002900480156105e95780601f106105be576101008083540402835291602001916105e9565b820191906000526020600020905b8154815290600101906020018083116105cc57829003601f168201915b5050505050908060020154905083565b60035481565b60006020528060005260406000206000915090505481565b6000803373ffffffffffffffffffffffffffffffffffffffff1673ffffffffffffffffffffffffffffffffffffffff16815260200190815260200160002054811115151561066457600080fd5b600160008473ffffffffffffffffffffffffffffffffffffffff1673ffffffffffffffffffffffffffffffffffffffff16815260200190815260200160002080548060010182816106b59190610884565b916000526020600020906003020160006060604051908101604052803373ffffffffffffffffffffffffffffffffffffffff16815260200186815260200185815250909190915060008201518160000160006101000a81548173ffffffffffffffffffffffffffffffffffffffff021916908373ffffffffffffffffffffffffffffffffffffffff160217905550602082015181600101908051906020019061075f9291906108b6565b5060408201518160020155505050600280548060010182816107819190610884565b916000526020600020906003020160006060604051908101604052803373ffffffffffffffffffffffffffffffffffffffff16815260200186815260200185815250909190915060008201518160000160006101000a81548173ffffffffffffffffffffffffffffffffffffffff021916908373ffffffffffffffffffffffffffffffffffffffff160217905550602082015181600101908051906020019061082b9291906108b6565b50604082015181600201555050508273ffffffffffffffffffffffffffffffffffffffff166108fc829081150290604051600060405180830381858888f19350505050151561087957600080fd5b505050565b60045481565b8154818355818115116108b1576003028160030283600052602060002091820191016108b09190610936565b5b505050565b828054600181600116156101000203166002900490600052602060002090601f016020900481019282601f106108f757805160ff1916838001178555610925565b82800160010185558215610925579182015b82811115610924578251825591602001919060010190610909565b5b5090506109329190610994565b5090565b61099191905b8082111561098d57600080820160006101000a81549073ffffffffffffffffffffffffffffffffffffffff021916905560018201600061097c91906109b9565b60028201600090555060030161093c565b5090565b90565b6109b691905b808211156109b257600081600090555060010161099a565b5090565b90565b50805460018160011615610100020316600290046000825580601f106109df57506109fe565b601f0160209004906000526020600020908101906109fd9190610994565b5b505600a165627a7a7230582090fd13483eee963d626bfc8d64571d4ed08144e50c14a697360683a156c9ed4a0029",
  "source": "pragma solidity 0.4.21;\n\ncontract Purchase {\n    struct Tx {\n        address buyerAddress;\n        string uniqueId;\n        uint256 amount;\n    }\n    mapping(address => uint256) public buyer;\n    mapping(address => Tx[]) public txToSeller;\n    Tx[] public transactions;\n    uint256 public totalBalance;\n    uint256 public totalBuyer;\n\n    function Purchase() public {}\n\n    // function getTotalAmount() public view returns(uint256) {\n    //     return this.balance;\n    // }\n\n    function getTotalBuyer() public view returns(uint256) {\n        return totalBuyer;\n    }\n\n    // function getTransactions() public view returns(Tx[]) {\n    //     return transactions;\n    // }\n\n    // function getTransactionsWithBuyer(address _address) public view returns(Tx[]) {\n    //     return txToSeller[_address];\n    // }\n\n    function buyerDepositToContract() public payable {\n        buyer[msg.sender] = msg.value;\n        totalBuyer += 1;\n    }\n\n    function sendMoney(address _addressSeller, string _uniqueId, uint256 _amount) public payable {\n        require(_amount <= buyer[msg.sender]);\n        txToSeller[_addressSeller].push(Tx(msg.sender, _uniqueId, _amount));\n        transactions.push(Tx(msg.sender, _uniqueId, _amount));\n        _addressSeller.transfer(_amount);\n    }\n}\n",
  "sourcePath": "/home/hoangnv/dev/purchase/contracts/Purchase.sol",
  "compiler": {
    "name": "solc",
    "version": "0.4.21+commit.dfe3193c.Emscripten.clang"
  },
  "schemaVersion": "2.0.0",
  "updatedAt": "2018-04-07T10:21:33.261Z"
}